:1000000012C024C023C022C021C020C01FC01EC0F7
:100010001DC01CC01BC01AC019C018C017C016C014
:1000200015C014C013C011241FBECFE5D4E0DEBF3D
:10003000CDBF11E0A0E6B0E0EAE8FCE002C0059028
:100040000D92A831B107D9F7B2D01DC6D9CF90BD56
:1000500089B988E18AB98EE880BD08955D9BFECF9D
:100060008CB908955F9BFECF8CB10895CF93DF9339
:10007000EC018991882311F0F1DFFBCFDF91CF9163
:1000800008958BE1EBDF80E690E0F0DF8BE1E6DFC7
:1000900084E690E0EBCF0F931F93CF93DF93CDB720
:1000A000DEB767970FB6F894DEBF0FBECDBF182F2F
:1000B0008BE16E8B7F8B9D8BD1DF7F897F936E89E8
:1000C0006F939D899F931F9387E690E09F938F93F3
:1000D0008E010F5F1F4F1F930F9316D3C801C6DF0A
:1000E0000FB6F894DEBF0FBECDBF67960FB6F8947B
:1000F000DEBF0FBECDBFDF91CF911F910F9108954D
:10010000CF93DF93EC0180E0CF36D80729F48BE161
:10011000A5DF85E790E008C080E0CA37D80731F452
:100120008BE19CDF8EE790E0A1DF1CC080E0C3384C
:10013000D80731F48BE192DF89E890E097DF1BC0AC
:1001400080E0CE38D80729F48BE188DF85E990E09C
:1001500022C080E0CA39D80729F48BE17FDF8FE91C
:1001600090E019C080E0C43AD80729F48BE176DF2B
:100170008CEA90E010C080E0C13BD80729F48BE105
:100180006DDF86EB90E007C0CB5BD04039F48BE1AC
:1001900065DF81EC90E0DF91CF9168CFDF91CF9167
:1001A0000895369A3699FECF84B195B10895CF93CC
:1001B000DF93CDB7DEB7AD970FB6F894DEBF0FBEB5
:1001C000CDBF87B1806C87B986B1876886B989E170
:1001D00090E03DDF82E0A82E81E0B82E8E010F5F17
:1001E0001F4FDFDFBC0180E090E02ED12AE037ED29
:1001F00043E25BE3DFD12CE53FE842E950E4DAD1AA
:100200006B017C01F0D02B013C01882777FD8095A4
:10021000982F1CD19B01AC01C701B6017BD020E017
:1002200030E44CE156E4C6D128D2DDD0962E872E9C
:1002300028DF8AE990E064DF64E170E085E090E027
:100240002ADF86EC90E012DF8BEB90E059DF65E16E
:1002500070E08AE090E01FDF8EEE90E007DF20E0A4
:1002600030E040E850E4C701B601B9D018165CF0A0
:1002700020E030E0A901C701B60198D187FD03C095
:1002800083E890E029C020E030E040E051E4C7017D
:10029000B601A5D0181664F020E030E040E850E444
:1002A000C701B60183D187FD03C08EE890E014C07A
:1002B00020E030E040E451E4C701B60190D01816C8
:1002C00064F020E030E040E051E4C701B6016ED1B7
:1002D00087FD03C08AE790E013DF8F929F925F92C1
:1002E0004F92BF92AF921F930F930ED2C801BEDE02
:1002F00084E191E0BBDE2FEF81EE94E0215080405D
:100300009040E1F700C000000FB6F894DEBF0FBECA
:10031000CDBF67CF5058BB27AA270ED00DC1FED046
:1003200030F003D120F031F49F3F11F41EF4F3C0FC
:100330000EF4E095E7FBE9C0E92F0FD180F3BA177F
:10034000620773078407950718F071F49EF527C1BB
:100350000EF4E0950B2EBA2FA02D0B01B9019001E0
:100360000C01CA01A0011124FF27591B99F0593F24
:1003700050F4503E68F11A16F040A22F232F342F6C
:100380004427585FF3CF469537952795A795F040BA
:100390005395C9F77EF41F16BA0B620B730B840BCF
:1003A000BAF09150A1F0FF0FBB1F661F771F881F87
:1003B000C2F70EC0BA0F621F731F841F48F48795DF
:1003C00077956795B795F7959E3F08F0B3CF9395CE
:1003D000880F08F09927EE0F97958795089571D0AB
:1003E00008F481E0089504D06894B111D9C008954B
:1003F000BCD088F09F5790F0B92F9927B751A0F043
:10040000D1F0660F771F881F991F1AF0BA95C9F7A8
:1004100012C0B13081F0C3D0B1E00895C0C0672FE1
:10042000782F8827B85F39F0B93FCCF38695779558
:100430006795B395D9F73EF4909580957095619541
:100440007F4F8F4F9F4F0895E89409C097FB3EF46C
:1004500090958095709561957F4F8F4F9F4F992311
:10046000A9F0F92F96E9BB279395F695879577958F
:100470006795B795F111F8CFFAF4BB0F11F460FF4F
:100480001BC06F5F7F4F8F4F9F4F16C0882311F0A7
:1004900096E911C0772321F09EE8872F762F05C0BB
:1004A000662371F096E8862F70E060E02AF09A9556
:1004B000660F771F881FDAF7880F9695879597F94B
:1004C0000895990F0008550FAA0BE0E8FEEF1616E5
:1004D0001706E807F907C0F012161306E407F50738
:1004E00098F0621B730B840B950B39F40A2661F0AC
:1004F000232B242B252B21F408950A2609F4A1404F
:10050000A6958FEF811D811D089597F99F6780E85B
:1005100070E060E008959FEF80EC089500240A9455
:100520001616170618060906089500240A941216CE
:100530001306140605060895092E0394000C11F401
:10054000882352F0BB0F40F4BF2B11F460FF04C0AE
:100550006F5F7F4F8F4F9F4F089557FD9058440F07
:10056000551F59F05F3F71F04795880F97FB991F12
:1005700061F09F3F79F087950895121613061406CF
:10058000551FF2CF4695F1DF08C01616170618065C
:10059000991FF1CF86957105610508940895E89437
:1005A000BB2766277727CB0197F908958ADF08F4E0
:1005B0008FEF08950BD0C0CFB1DF28F0B6DF18F071
:1005C000952309F0A2CFA7CF1124EACFC6DFA0F36D
:1005D000959FD1F3950F50E0551F629FF001729FD8
:1005E000BB27F00DB11D639FAA27F00DB11DAA1FF7
:1005F000649F6627B00DA11D661F829F2227B00D44
:10060000A11D621F739FB00DA11D621F839FA00DCE
:10061000611D221F749F3327A00D611D231F849F1E
:10062000600D211D822F762F6A2F11249F57504075
:100630008AF0E1F088234AF0EE0FFF1FBB1F661F10
:10064000771F881F91505040A9F79E3F510570F0C9
:100650005CCFA6CF5F3FECF3983EDCF386957795B1
:100660006795B795F795E7959F5FC1F7FE2B880FC4
:10067000911D9695879597F908952FD020F09F3773
:1006800008F48ECF01C01BC0882371F4772321F0BA
:100690009850872B762F07C0662311F499270DC039
:1006A0009051862B70E060E02AF09A95660F771FD4
:1006B000881FDAF7880F9695879597F908959F3FD9
:1006C00031F0915020F4879577956795B795880F0D
:1006D000911D9695879597F9089547DFA0F0BEE79D
:1006E000B91788F4BB279F3860F41616B11D672F21
:1006F000782F8827985FF7CF869577956795B11DF6
:1007000093959639C8F30895AEE0B0E0E9E8F3E0D8
:1007100091C20D891E8986E08C831A8309838FEF2D
:100720009FE79E838D83AE01475E5F4F6F89788D13
:10073000CE01019608D0EF81F885E00FF11F1082FD
:100740002E96E4E093C2ACE0B0E0E8EAF3E064C2E5
:100750007C016B018A01FC0117821682838181FF73
:10076000B0C1CE0101964C01F7019381F60193FDD2
:10077000859193FF81916F01882309F49EC1853291
:1007800039F493FD859193FF81916F01853221F4B6
:10079000B70190E0B1D1E8CF512C312C20E02032CC
:1007A000A0F48B3269F030F4803259F0833269F46E
:1007B00020612CC08D3239F0803339F4216026C09D
:1007C0002260246023C0286021C027FD27C030EDAF
:1007D000380F3A3078F426FF06C0FAE05F9E300DFD
:1007E0001124532E13C08AE0389E300D1124332E6D
:1007F00020620CC08E3221F426FD5FC1206406C049
:100800008C3611F4206802C0883641F4F60193FD5D
:10081000859193FF81916F018111C1CF982F9F7DA9
:100820009554933028F40C5F1F4FFFE3F9830DC0FC
:10083000833631F0833771F0833509F057C021C01A
:10084000F801808189830E5F1F4F44244394512C0B
:10085000540114C03801F2E06F0E711CF801A08041
:10086000B18026FF03C0652D70E002C06FEF7FEFFF
:10087000C5012C8736D12C0183012C852F77222EA0
:1008800016C03801F2E06F0E711CF801A080B18033
:1008900026FF03C0652D70E002C06FEF7FEFC5013A
:1008A0002C8714D12C012C852068222E830123FC57
:1008B00019C0832D90E048165906A0F4B70180E2D4
:1008C00090E01AD13A94F5CFF50127FC859127FEE7
:1008D00081915F01B70190E00FD131103A94F1E0BE
:1008E0004F1A51084114510479F7DEC0843611F0D3
:1008F000893631F5F80127FF07C060817181828157
:1009000093810C5F1F4F08C060817181882777FD3C
:100910008095982F0E5F1F4F2F76B22E97FF09C03C
:1009200090958095709561957F4F8F4F9F4F206870
:10093000B22E2AE030E0A40111D1A82EA81843C09D
:10094000853729F42F7EB22E2AE030E025C0F22F21
:10095000F97FBF2E8F36C1F018F4883579F0ADC01D
:10096000803719F0883721F0A8C02F2F2061B22ED0
:10097000B4FE0DC08B2D8460B82E09C024FF0AC0C0
:100980009F2F9660B92E06C028E030E005C020E118
:1009900030E002C020E132E0F801B7FE07C060811C
:1009A0007181828193810C5F1F4F06C060817181CC
:1009B00080E090E00E5F1F4FA401D0D0A82EA818B1
:1009C000FB2DFF77BF2EB6FE0BC02B2D2E7FA5145F
:1009D00050F4B4FE0AC0B2FC08C02B2D2E7E05C018
:1009E0007A2C2B2D03C07A2C01C0752C24FF0DC04E
:1009F000FE01EA0DF11D8081803311F4297E09C0CA
:100A000022FF06C07394739404C0822F867809F085
:100A1000739423FD12C020FF06C05A2C731418F4DF
:100A2000530C5718732C731460F4B70180E290E0F4
:100A30002C8762D073942C85F6CF731410F437187A
:100A400001C0312C24FF11C0B70180E390E02C8756
:100A500053D02C8522FF16C021FF03C088E590E00B
:100A600002C088E790E0B7010CC0822F867851F071
:100A700021FD02C080E201C08BE227FD8DE2B701BB
:100A800090E03AD0A51430F4B70180E390E034D080
:100A90005A94F8CFAA94F401EA0DF11D8081B701B0
:100AA00090E02AD0A110F6CF332009F45DCEB70133
:100AB00080E290E021D03A94F7CFF70186819781C8
:100AC00002C08FEF9FEF2C96E2E1C2C0FC010590BF
:100AD000615070400110D8F7809590958E0F9F1F40
:100AE0000895FC016150704001900110D8F7809585
:100AF00090958E0F9F1F08950F931F93CF93DF93B1
:100B0000182F092FEB018B8181FD03C08FEF9FEF21
:100B100020C082FF10C04E815F812C813D81421731
:100B200053077CF4E881F9819F012F5F3F4F3983A0
:100B30002883108306C0E885F985812F0995892BC4
:100B400029F72E813F812F5F3F4F3F832E83812FD7
:100B5000902FDF91CF911F910F910895FA01AA274D
:100B6000283051F1203181F1E8946F936E7F6E5FF0
:100B70007F4F8F4F9F4FAF4FB1E03ED0B4E03CD09E
:100B8000670F781F891F9A1FA11D680F791F8A1F81
:100B9000911DA11D6A0F711D811D911DA11D20D0E8
:100BA00009F468943F912AE0269F11243019305DA2
:100BB0003193DEF6CF010895462F4770405D419393
:100BC000B3E00FD0C9F7F6CF462F4F70405D4A33E0
:100BD00018F0495D31FD4052419302D0A9F7EACFA8
:100BE000B4E0A6959795879577956795BA95C9F7D7
:100BF00000976105710508959B01AC010A2E0694CA
:100C00005795479537952795BA95C9F7620F731F82
:100C1000841F951FA01D08952F923F924F925F92BF
:100C20006F927F928F929F92AF92BF92CF92DF92FC
:100C3000EF92FF920F931F93CF93DF93CDB7DEB761
:100C4000CA1BDB0B0FB6F894DEBF0FBECDBF0994F5
:100C50002A88398848885F846E847D848C849B844C
:100C6000AA84B984C884DF80EE80FD800C811B815A
:100C7000AA81B981CE0FD11D0FB6F894DEBF0FBE89
:0A0C8000CDBFED010895F894FFCFF9
:100C8A005B324A005B48005B25643B256466004290
:100C9A004C41434B005B33306D00524544005B339B
:100CAA00316D00475245454E005B33326D00594560
:100CBA004C4C4F57005B33336D00424C5545005B3B
:100CCA0033346D004D41474E455441005B33356D19
:100CDA00004359414E005B33366D0057484954452D
:100CEA00005B33376D002D2D3D3D504F5745522047
:100CFA00535550504C592041544D45474138206274
:100D0A0079204D69436B6C3D3D2D2D0D0A00416BD9
:100D1A007475616C6E65206E617069656369653AA8
:100D2A00200025642E25303464205B2B2D302E3292
:080D3A005D2056200D0A0000A7
:00000001FF
