:100000000C9434000C9446000C9446000C9446006A
:100010000C9446000C9446000C9446000C94460048
:100020000C9446000C9446000C9446000C94460038
:100030000C9446000C9446000C9456010C94460017
:100040000C9446000C9446000C9446000C94460018
:100050000C9446000C9446000C9446000C94460008
:100060000C9446000C94460011241FBECFEFD8E03C
:10007000DEBFCDBF21E0A0E0B1E001C01D92A632FD
:10008000B207E1F70E9495020C94B4030C940000AF
:10009000209A259A569A579A219A229A239A85B19C
:1000A00015B885B115B88BB11BB85F9A85B115B875
:1000B0002A9A8CB580658CBD8DB581608DBD82E03E
:1000C00084BD85E085BD83E087BDEEE6F0E08081FC
:1000D0008260808308955E9A5F9AE2E0F1E0819108
:1000E0008EBD0DB407FEFDCF81E0EE30F807B9F705
:1000F000299A85B115B808955F9B04C08BB11BB8D0
:1001000031E001C030E085B115B880E090E120E039
:10011000203C78F4E22FF0E0E25FFE4F4081442380
:1001200011F02B9A02C045B115B82D9A45B115B8FA
:100130002F5F289A45B115B80197009749F72A9A79
:10014000299A85B115B8332321F02D9A85B115B8B8
:10015000089508959C0194E0369527959A95E1F7C6
:10016000322F982F22952F708295807F282BE0E1E7
:10017000F1E0DF0112973C9311962C939083339614
:1001800081E0E832F807A9F70895282F220F220FFF
:10019000422F440F440F942F990F990F382F329507
:1001A0003F70322B282F26952695242B982B3093A1
:1001B00002012093030190930401309305012093E1
:1001C0000601909307013093080120930901909351
:1001D0000A0130930B0120930C0190930D010895B7
:1001E0002FE0281B33E0239FC001112496958795AB
:1001F000FC01E25FFE4F20FD11C09B0144E03695FB
:1002000027954A95E1F72083FC01E15FFE4F80814D
:100210008F706295607F862B808308958081807FB8
:10022000872B8083618308952FE0281B33E0239F71
:10023000C001112496958795969587952370FC01AA
:10024000EE5FFE4F2130D9F0A8F0223051F5408109
:10025000407F9B013695279536952795422B408305
:10026000FC01ED5FFE4F80818F736295660F660F14
:10027000607C19C080818370660F660F14C0408156
:100280004C7F9B01A4E036952795AA95E1F7422B78
:100290004083FC01ED5FFE4F80818F706295607F2F
:1002A00002C08081807C862B808308951F920F92EC
:1002B0000FB60F9211248F93EF93FF932A9A5F9BAF
:1002C0000FC08BB11BB880910001882329F0299AB7
:1002D00085B115B8109200012D9A85B115B809C0E5
:1002E00080910001882329F0299A85B115B81092D0
:1002F000000185B115B880910101882381F0EEE0FD
:10030000F1E081918EBD0DB407FEFDCF81E0E632B4
:10031000F807B9F781E08093000110920101FF9185
:10032000EF918F910F900FBE0F901F9018959093A3
:10033000C5008093C40088E18093C1008EE0809363
:10034000C20008959091C00095FFFCCF8093C60035
:1003500008958091C00087FFFCCF8091C60008956A
:10036000CF93DF93EB0128813981863659F020F451
:10037000823609F491C0C4C08C3659F1823709F431
:1003800059C0BEC02115304124F08FEF9FE0998302
:100390008883809101018111FCCF6881798181E09E
:1003A0000E94F00060E070E082E00E94F00068814E
:1003B000798183E00E94F00060E070E084E00E94B8
:1003C000F000688179818BE00E94F00060E070E0CD
:1003D00026C02115304124F08FEF9FE09983888358
:1003E000809101018111FCCF6881798183E00E94B5
:1003F000F00060E070E081E00E94F00068817981A7
:1004000082E00E94F00060E070E084E00E94F00072
:1004100060E070E08BE00E94F000688179818CE000
:100420000E94F000688179818DE00E94F00060E018
:1004300070E030C02115304124F08FEF9FE09983A8
:100440008883809101018111FCCF6881798181E0ED
:100450000E94F00060E070E082E00E94F00068819D
:10046000798184E00E94F00060E070E083E00E9407
:10047000F000688179818BE00E94F00060E070E01C
:100480008CE00E94F00060E070E08DE00E94F000DF
:10049000688179818EE031C02115304124F08FEFE1
:1004A0009FE099838883809101018111FCCF68814D
:1004B000798182E00E94F00060E070E081E00E94BB
:1004C000F0006881798184E00E94F00060E070E0D3
:1004D00083E00E94F000688179818CE00E94F00046
:1004E00060E070E08BE00E94F000688179818EE02E
:1004F0000E94F00060E070E08DE00E94F0000FC00C
:100500002115304124F08FEF9FE0998388838091FB
:1005100001018111FCCF80E090E00E94AA0081E0FF
:1005200080930101DF91CF910895CF93DF9300D0A5
:10053000CDB7DEB783E390E00E9497010E944800A8
:1005400080E090E00E94AA007894809101018111DE
:10055000FCCF81E08093010124EC39E03A832983C8
:100560000E94A901182F843409F4AAC040F48234EF
:1005700009F444C008F073C0813479F0E6C08236D3
:1005800009F4CFC0833609F4D9C0813609F0DDC043
:1005900029813A8128533F4FC8C0809101018111C0
:1005A000FCCF69817A8181E00E94F00060E070E018
:1005B00082E00E94F00069817A8183E00E94F0006D
:1005C00060E070E084E00E94F00069817A818BE055
:1005D0000E94F00060E070E08CE00E94F000698111
:1005E0007A818DE00E94F00060E070E08EE00E9471
:1005F000F00081E08093010106E6B2C08091010124
:100600008111FCCF69817A8182E00E94F00060E074
:1006100070E081E00E94F00069817A8184E00E94AC
:10062000F00060E070E083E00E94F00069817A8170
:100630008CE00E94F00060E070E08BE00E94F0002F
:1006400069817A818EE00E94F00060E070E08DE0C8
:100650000E94F00081E08093010102E681C0809158
:1006600001018111FCCF69817A8181E00E94F00053
:1006700060E070E082E00E94F00069817A8184E0AD
:100680000E94F00060E070E083E00E94F000698169
:100690007A818BE00E94F00060E070E08CE00E94C4
:1006A000F00060E070E08DE00E94F00069817A81E6
:1006B0008EE00E94F00081E08093010102E750C0CB
:1006C000809101018111FCCF69817A8183E00E94D0
:1006D000F00060E070E081E00E94F00069817A81C2
:1006E00082E00E94F00060E070E084E00E94F00090
:1006F00060E070E08BE00E94F00069817A818CE01C
:100700000E94F00069817A818DE00E94F00060E033
:1007100070E08EE00E94F00081E0809301010CE621
:100720001FC029813A81285C31093A832983BE019F
:100730006F5F7F4F802F0E94B00112C08091010136
:100740008111FCCF8CEA9DE006C0809101018111EE
:10075000FCCF80E090E00E94AA0081E0809301013C
:0C076000812F0E94A201FCCEF894FFCF74
:00000001FF
