:100000000C9434000C9451000C9451000C94510049
:100010000C9451000C9451000C9451000C9451001C
:100020000C9451000C9451000C9451000C9451000C
:100030000C9451000C9451000C94ED000C94510060
:100040000C9451000C9451000C9451000C945100EC
:100050000C9451000C9451000C9451000C945100DC
:100060000C9451000C94510011241FBECFEFD8E026
:10007000DEBFCDBF11E0A0E0B1E0E4E5F2E002C0F8
:1000800005900D92A432B107D9F721E0A4E2B1E0C6
:1000900001C01D92A532B207E1F70E94E7000C945F
:1000A00028010C9400009EBD0DB407FEFDCF8EBD4F
:1000B0000DB407FEFDCF299A2998089529988EBD81
:1000C0000DB407FEFDCF299A08958CB580658CBDCF
:1000D0008DB581608DBD0895209A229A579A569ABF
:1000E000219A259A239A85B115B885B115B88BB197
:1000F0001BB85E9A85B115B82D9A8CB580658CBDFC
:100100008DB581608DBD82E084BD85E085BD83E0D5
:1001100087BDEEE6F0E080818260808308955F9A7B
:100120005E9AE8E1F1E081918EBD0DB407FEFDCF4E
:1001300081E0E432F807B9F7299A85B115B8089536
:100140005E9B04C08BB11BB831E001C030E085B1CB
:1001500015B880E090E120E0203C78F4E22FF0E058
:10016000E050FF4F4081442311F02B9A02C045B16B
:1001700015B82A9A45B115B82F5F289A45B115B818
:100180000197009749F72D9A299A85B115B833231D
:1001900021F02A9A85B115B8089508959093C50065
:1001A0008093C40088E18093C1008EE08093C200F8
:1001B00008959091C00095FFFCCF8093C6000895EC
:1001C0008091C00087FFFCCF8091C60008950E94F7
:1001D0006C000E948F007894FFCF1F920F920FB691
:1001E0000F9211248F93EF93FF932D9A5E9B0FC074
:1001F0008BB11BB880912401882329F0299A85B1FD
:1002000015B8109224012A9A85B115B809C08091B9
:100210002401882329F0299A85B115B81092240168
:1002200085B115B8E0E0F1E081918EBD0DB407FE17
:10023000FDCF81E0E831F807B9F781E08093240130
:10024000FF91EF918F910F900FBE0F901F90189517
:04025000F894FFCF50
:10025400FFFFFFFF0000000000000000000000009E
:100264000000000000000000FFFFFFFFFFFFFFFF92
:04027400FFFFFFFF8A
:00000001FF
