:100000000C9434000C943E000C943E000C943E0082
:100010000C943E000C943E000C943E000C943E0068
:100020000C943E000C943E000C943E000C943E0058
:100030000C943E000C943E000C943E000C943E0048
:100040000C943E000C943E000C943E000C943E0038
:100050000C943E000C943E000C943E000C943E0028
:100060000C943E000C943E0011241FBECFEFD8E04C
:10007000DEBFCDBF0E9475000C949A000C94000066
:100080009EBD0DB407FEFDCF8EBD0DB407FEFDCFA6
:10009000299A2998089529988EBD0DB407FEFDCFA1
:1000A000299A089584B18E6084B98CB580658CBD21
:1000B0008DB581608DBD08959093C5008093C40077
:1000C00088E18093C1008EE08093C20008959091F2
:1000D000C00095FFFCCF8093C60008958091C000BA
:1000E00087FFFCCF8091C600089589E190E00E94CF
:1000F0005C0078940E945200249A8091B100816043
:100100008093B1008091B00082608093B0008091B4
:10011000B00080618093B000569A559A0E946E009C
:10012000C82F813419F48FEF0E944B008C2F0E944E
:080130006700F4CFF894FFCF43
:00000001FF
