:100000000C9434000C9449000C9449000C94490061
:100010000C9449000C9449000C9449000C9449003C
:100020000C9449000C9449000C9449000C9449002C
:100030000C9449000C9449000C9449000C9449001C
:100040000C9449000C9449000C9449000C9449000C
:100050000C9449000C9449000C9449000C944900FC
:100060000C9449000C94490011241FBECFEFD8E036
:10007000DEBFCDBF12E0A0E0B1E0EAEFF1E002C0E8
:1000800005900D92A032B107D9F70E94D6000C94CA
:10009000FB000C9400009EBD0DB407FEFDCF8EBD8D
:1000A0000DB407FEFDCF299A2998089529988EBD91
:1000B0000DB407FEFDCF299A089584B18E6084B9EE
:1000C0008CB580658CBD8DB581608DBD0895209AFD
:1000D000259A549A579A219A229A239A85B115B84B
:1000E00085B115B88BB11BB85F9A85B115B82A9A3E
:1000F00008955C9A5F9AE0ECF1E08191882311F019
:100100002B9A02C085B115B82D9A85B115B882E039
:10011000E032F80791F7299A85B115B808955F9BE9
:1001200004C08BB11BB831E001C030E085B115B817
:1001300080E090E120E0203C78F4E22FF0E0E05015
:10014000FF4F4081442311F02B9A02C045B115B8EE
:100150002D9A45B115B82F5F289A45B115B801976A
:10016000009749F72A9A299A85B115B8332321F0C7
:100170002D9A85B115B8089508959093C500809380
:10018000C40088E18093C1008EE08093C20008958E
:100190009091C00095FFFCCF8093C6000895809198
:1001A000C00087FFFCCF8091C600089589E190E0F0
:1001B0000E94BD0078940E945D00249A8091B10055
:1001C00081608093B1008091B00082608093B00024
:1001D0008091B00080618093B000569A559A0E9439
:1001E000CF00C82F813419F48FEF0E9456008C2F56
:0A01F0000E94C800F4CFF894FFCF7E
:1001FA0000000000000000000000000000000000F5
:10020A0000000000000000000000000000000000E4
:10021A0000000000000000000000000000000001D3
:10022A0000000000000000000000010000000000C3
:10023A0000000000000100000000000000000000B3
:10024A0001000000000000000000000100000000A2
:10025A000000000000000100000000000000000093
:10026A000001000000000000000000000100000082
:10027A000000000000000001000000000000000073
:10028A000000010000000000000000000001000062
:10029A000000000000000000010000000000000053
:1002AA000000000001010101010101010101010138
:1002BA000101010101010101010101010101010124
:1002CA000101010101010101010101010101010114
:1002DA000101010101010101010101010101010104
:1002EA0001010101010101010101010101010101F4
:1002FA0001010101010101010101010101010101E4
:10030A0001010101010101010101010101010101D3
:00000001FF
