:100000000C9434000C9449000C9449000C94490061
:100010000C9449000C9449000C9449000C9449003C
:100020000C9449000C9449000C9449000C9449002C
:100030000C9449000C9449000C9449000C9449001C
:100040000C9449000C9449000C9449000C9449000C
:100050000C9449000C9449000C9449000C944900FC
:100060000C9449000C94490011241FBECFEFD8E036
:10007000DEBFCDBF12E0A0E0B1E0EEEBF1E002C0E8
:1000800005900D92A032B107D9F70E94D6000C94CA
:10009000DD000C9400009EBD0DB407FEFDCF8EBDAB
:1000A0000DB407FEFDCF299A2998089529988EBD91
:1000B0000DB407FEFDCF299A089584B18E6084B9EE
:1000C0008CB580658CBD8DB581608DBD0895209AFD
:1000D000229A579A569A219A259A239A85B115B849
:1000E00085B115B88BB11BB85E9A85B115B82D9A3C
:1000F00008955F9A5E9AE0ECF1E08191882311F017
:100100002B9A02C085B115B82A9A85B115B882E03C
:10011000E032F80791F7299A85B115B808955E9BEA
:1001200004C08BB11BB831E001C030E085B115B817
:1001300080E090E120E0203C78F4E22FF0E0E05015
:10014000FF4F4081442311F02B9A02C045B115B8EE
:100150002A9A45B115B82F5F289A45B115B801976D
:10016000009749F72D9A299A85B115B8332321F0C4
:100170002A9A85B115B8089508959093C500809383
:10018000C40088E18093C1008EE08093C20008958E
:100190009091C00095FFFCCF8093C6000895809198
:1001A000C00087FFFCCF8091C60008950E946700C1
:0E01B0000E9479000E948F00FDCFF894FFCFCF
:1001BE000000000000000000000000000000000031
:1001CE000000000000000000000000000000000021
:1001DE000000000000000000000000000000000110
:1001EE000000000000000000000001000000000000
:1001FE0000000000000100000000000000000000F0
:10020E0001000000000000000000000100000000DE
:10021E0000000000000001000000000000000000CF
:10022E0000010000000000000000000001000000BE
:10023E0000000000000000010000000000000000AF
:10024E00000001000000000000000000000100009E
:10025E00000000000000000001000000000000008F
:10026E000000000001010101010101010101010174
:10027E000101010101010101010101010101010160
:10028E000101010101010101010101010101010150
:10029E000101010101010101010101010101010140
:1002AE000101010101010101010101010101010130
:1002BE000101010101010101010101010101010120
:1002CE000101010101010101010101010101010110
:00000001FF
