:100000000C9434000C9451000C9451000C94510049
:100010000C9451000C9451000C9451000C9451001C
:100020000C9451000C9451000C9451000C9451000C
:100030000C9451000C9451000C9461010C945100EB
:100040000C9451000C9451000C9451000C945100EC
:100050000C9451000C9451000C9451000C945100DC
:100060000C9451000C94510011241FBECFEFD8E026
:10007000DEBFCDBF11E0A0E0B1E0E4EDF3E102C0EE
:1000800005900D92A439B107D9F721E0A4E9B1E0B8
:1000900001C01D92AA3BB207E1F70E9452030C94E3
:1000A000E8090C940000209A259A569A579A219AAA
:1000B000229A239A85B115B885B115B88BB11BB8B2
:1000C0005F9A85B115B82A9A8CB580658CBD8DB5BF
:1000D00081608DBD82E084BD85E085BD83E087BD04
:1000E000EEE6F0E080818260808308955E9A5F9AF8
:1000F000E6E9F1E081918EBD0DB407FEFDCF81E010
:10010000E23AF807B9F7299A85B115B808955F9BC7
:1001100004C08BB11BB831E001C030E085B115B827
:1001200080E090E120E0203C78F4E22FF0E0EE5512
:10013000FE4F4081442311F02B9A02C045B115B8FF
:100140002D9A45B115B82F5F289A45B115B801977A
:10015000009749F72A9A299A85B115B8332321F0D7
:100160002D9A85B115B8089508959C0194E03695AF
:1001700027959A95E1F7322F982F22952F70829527
:10018000807F282BE4EAF1E0DF0112973C9311967F
:100190002C939083339681E0EC3BF807A9F7089500
:1001A000282F220F220F422F440F440F942F990F14
:1001B000990F382F32953F70322B282F2695269590
:1001C000242B982B309396012093970190939801BC
:1001D0003093990120939A0190939B0130939C0155
:1001E00020939D0190939E0130939F012093A00145
:1001F0009093A10108952FE0281B33E0239FC001B5
:10020000112496958795FC01EE55FE4F20FD11C0F7
:100210009B0144E0369527954A95E1F72083FC0140
:10022000ED55FE4F80818F706295607F862B8083B5
:1002300008958081807F872B8083618308952FE0DC
:10024000281B33E0239FC00111249695879596952E
:1002500087952370FC01EA56FE4F2130D9F0A8F0B3
:10026000223051F54081407F9B0136952795369588
:100270002795422B4083FC01E956FE4F80818F7306
:100280006295660F660F607C19C080818370660F6F
:10029000660F14C040814C7F9B01A4E036952795E2
:1002A000AA95E1F7422B4083FC01E956FE4F80817D
:1002B0008F706295607F02C08081807C862B8083F6
:1002C00008951F920F920FB60F9211248F93EF9300
:1002D000FF932A9A5F9B0FC08BB11BB8809194014A
:1002E000882329F0299A85B115B8109294012D9A86
:1002F00085B115B809C080919401882329F0299A05
:1003000085B115B81092940185B115B88091950109
:10031000882381F0E2EAF1E081918EBD0DB407FE01
:10032000FDCF81E0EA3BF807B9F781E080939401C3
:1003300010929501FF91EF918F910F900FBE0F904A
:100340001F9018959093C5008093C40088E1809316
:10035000C1008EE08093C20008959091C00095FF87
:10036000FCCF8093C60008958091C00087FFFCCF2A
:100370008091C6000895CF93DF93EC018991882383
:1003800019F00E94AD01FACFDF91CF910895CF937C
:10039000DF93EC0181E0C030D80731F48BE10E949B
:1003A000AD0186E091E009C081E0CB30D80741F48F
:1003B0008BE10E94AD018FE091E00E94BB0120C063
:1003C00081E0C431D80741F48BE10E94AD018AE19C
:1003D00091E00E94BB011EC081E0CF31D80731F40B
:1003E0008BE10E94AD0186E291E026C081E0CB3234
:1003F000D80731F48BE10E94AD0180E391E01CC08D
:1004000081E0C533D80731F48BE10E94AD018DE363
:1004100091E012C081E0C234D80731F48BE10E9430
:10042000AD0187E491E008C0CC54D14049F48BE1A0
:100430000E94AD0182E591E0DF91CF910C94BB0168
:10044000DF91CF9108958BE10E94AD0187E591E0A6
:100450000E94BB018BE10E94AD018BE591E00C9401
:10046000BB010F931F93CF93DF93CDB7DEB7679791
:100470000FB6F894DEBF0FBECDBF182F8BE16E8B89
:100480007F8B9D8B0E94AD017F897F936E896F93D7
:100490009D899F931F938EE591E09F938F938E018B
:1004A0000F5F1F4F1F930F930E941707C8010E94F1
:1004B000BB010FB6F894DEBF0FBECDBF67960FB677
:1004C000F894DEBF0FBECDBFDF91CF911F910F918A
:1004D0000895CF93DF93EB0128813981863659F057
:1004E00020F4823609F491C0C4C08C3659F18237A9
:1004F00009F459C0BEC02115304124F08FEF9FE0B0
:1005000099838883809195018111FCCF68817981DD
:1005100081E00E94FB0060E070E082E00E94FB004E
:100520006881798183E00E94FB0060E070E084E0F4
:100530000E94FB00688179818BE00E94FB0060E0F3
:1005400070E026C02115304124F08FEF9FE09983A1
:100550008883809195018111FCCF6881798183E046
:100560000E94FB0060E070E081E00E94FB00688177
:10057000798182E00E94FB0060E070E084E00E94EC
:10058000FB0060E070E08BE00E94FB0068817981F5
:100590008CE00E94FB00688179818DE00E94FB0065
:1005A00060E070E030C02115304124F08FEF9FE013
:1005B00099838883809195018111FCCF688179812D
:1005C00081E00E94FB0060E070E082E00E94FB009E
:1005D0006881798184E00E94FB0060E070E083E044
:1005E0000E94FB00688179818BE00E94FB0060E043
:1005F00070E08CE00E94FB0060E070E08DE00E9403
:10060000FB00688179818EE031C02115304124F0F2
:100610008FEF9FE099838883809195018111FCCFB2
:100620006881798182E00E94FB0060E070E081E0F7
:100630000E94FB006881798184E00E94FB0060E0F9
:1006400070E083E00E94FB00688179818CE00E9469
:10065000FB0060E070E08BE00E94FB006881798124
:100660008EE00E94FB0060E070E08DE00E94FB00E5
:1006700013C02115304124F08FEF9FE099838883C8
:10068000809195018111FCCF80E090E00E94B5003F
:1006900084EC99E09983888381E080939501DF91D0
:1006A000CF910895CF93DF93CDB7DEB7A1970FB663
:1006B000F894DEBF0FBECDBF83E390E00E94A2019D
:1006C0000E94530080E090E00E94B50078948091F1
:1006D00095018111FCCF81E08093950184EC99E034
:1006E00098A38F8F84EC882E89E0982E94E8292E89
:1006F00091E0392E8E010F5F1F4F0E94B4018434A8
:1007000009F4ABC040F4823409F444C008F073C06B
:10071000813479F0E8C0823609F4D1C0833609F417
:10072000DBC0813609F0DFC08F8D98A188539F4FC1
:10073000CAC0809195018111FCCF6F8D78A181E0B5
:100740000E94FB0060E070E082E00E94FB006F8D81
:1007500078A183E00E94FB0060E070E084E00E94EA
:10076000FB006F8D78A18BE00E94FB0060E070E0E1
:100770008CE00E94FB006F8D78A18DE00E94FB0051
:1007800060E070E08EE00E94FB0081E080939501C4
:1007900026E661C0809195018111FCCF6F8D78A113
:1007A00082E00E94FB0060E070E081E00E94FB00BC
:1007B0006F8D78A184E00E94FB0060E070E083E030
:1007C0000E94FB006F8D78A18CE00E94FB0060E02E
:1007D00070E08BE00E94FB006F8D78A18EE00E949C
:1007E000FB0060E070E08DE00E94FB0081E0809300
:1007F000950182E662C0809195018111FCCF6F8DD9
:1008000078A181E00E94FB0060E070E082E00E943D
:10081000FB006F8D78A184E00E94FB0060E070E037
:1008200083E00E94FB006F8D78A18BE00E94FB00AB
:1008300060E070E08CE00E94FB0060E070E08DE022
:100840000E94FB006F8D78A18EE00E94FB0081E08A
:100850008093950122E729A353C0809195018111CE
:10086000FCCF6F8D78A183E00E94FB0060E070E018
:1008700081E00E94FB006F8D78A182E00E94FB0066
:1008800060E070E084E00E94FB0060E070E08BE0DC
:100890000E94FB006F8D78A18CE00E94FB006F8DA1
:1008A00078A18DE00E94FB0060E070E08EE00E9485
:1008B000FB0081E0809395018CE689A321C08F8D98
:1008C00098A1885C910998A38F8FBE01615E7F4FCC
:1008D00089A10E94690214C0809195018111FCCF09
:1008E0008CEA9DE006C0809195018111FCCF80E0EB
:1008F00090E00E94B50098A28F8E81E080939501D0
:100900000E9423026F8D78A1882777FD8095982F0C
:100910000E94E10520E030EF4FE755E40E944605D4
:1009200020E030E048EC52E40E946D062B013C01CF
:100930000E94AE055B01882777FD8095982F0E9465
:10094000E1059B01AC01C301B2010E94E10420E07A
:1009500030E44CE156E40E946D060E94D0060E94ED
:10096000AE05693873411CF08FEFA81AB80A6FE121
:1009700070E081E190E00E9431028BE291E00E9400
:10098000C70186E691E00E94BB018CE491E00E94E1
:10099000C701BF92AF923F922F921F930F930E9475
:1009A000170765E270E083E190E00E943102C80120
:1009B0000E94BB010F900F900F900F900F900F901F
:1009C0009CCE5058BB27AA270ED04DC13ED130F047
:1009D00043D120F031F49F3F11F41EF433C10EF4E3
:1009E000E095E7FB29C1E92F4FD180F3BA176207E1
:1009F00073078407950718F071F49EF567C10EF42C
:100A0000E0950B2EBA2FA02D0B01B90190010C011E
:100A1000CA01A0011124FF27591B99F0593F50F436
:100A2000503E68F11A16F040A22F232F342F44278E
:100A3000585FF3CF469537952795A795F040539586
:100A4000C9F77EF41F16BA0B620B730B840BBAF056
:100A50009150A1F0FF0FBB1F661F771F881FC2F7C1
:100A60000EC0BA0F621F731F841F48F487957795D5
:100A70006795B795F7959E3F08F0B3CF9395880F8C
:100A800008F09927EE0F9795879508950CD0EBC045
:100A9000E3D040F0DAD030F021F45F3F19F0CCC061
:100AA000511115C1CFC0F0D098F39923C9F3552344
:100AB000B1F3951B550BBB27AA2762177307840751
:100AC00038F09F5F5F4F220F331F441FAA1FA9F307
:100AD00033D00E2E3AF0E0E830D091505040E695F9
:100AE000001CCAF729D0FE2F27D0660F771F881F5A
:100AF000BB1F261737074807AB07B0E809F0BB0B49
:100B0000802DBF01FF2793585F4F2AF09E3F51056C
:100B100068F092C0DCC05F3FECF3983EDCF3869552
:100B200077956795B795F7959F5FC9F7880F911DE2
:100B30009695879597F90895E1E0660F771F881FCE
:100B4000BB1F621773078407BA0720F0621B730B81
:100B5000840BBA0BEE1F88F7E095089504D06894D3
:100B6000B111B5C0089598D088F09F5790F0B92F73
:100B70009927B751A0F0D1F0660F771F881F991FF2
:100B80001AF0BA95C9F712C0B13081F09FD0B1E028
:100B900008959CC0672F782F8827B85F39F0B93F38
:100BA000CCF3869577956795B395D9F73EF49095F4
:100BB0008095709561957F4F8F4F9F4F0895E89472
:100BC00009C097FB3EF490958095709561957F4F95
:100BD0008F4F9F4F9923A9F0F92F96E9BB27939543
:100BE000F695879577956795B795F111F8CFFAF453
:100BF000BB0F11F460FF1BC06F5F7F4F8F4F9F4F84
:100C000016C0882311F096E911C0772321F09EE8E1
:100C1000872F762F05C0662371F096E8862F70E047
:100C200060E02AF09A95660F771F881FDAF7880F21
:100C30009695879597F9089597F99F6780E870E0F2
:100C400060E008959FEF80EC089500240A94161642
:100C5000170618060906089500240A9412161306AA
:100C6000140605060895092E0394000C11F4882338
:100C700052F0BB0F40F4BF2B11F460FF04C06F5F54
:100C80007F4F8F4F9F4F089557FD9058440F551F2A
:100C900059F05F3F71F04795880F97FB991F61F0FE
:100CA0009F3F79F087950895121613061406551F75
:100CB000F2CF4695F1DF08C0161617061806991FE1
:100CC000F1CF86957105610508940895E894BB27D6
:100CD00066277727CB0197F908950BD0C4CFB5DFEE
:100CE00028F0BADF18F0952309F0A6CFABCF112476
:100CF000EECFCADFA0F3959FD1F3950F50E0551FBB
:100D0000629FF001729FBB27F00DB11D639FAA2760
:100D1000F00DB11DAA1F649F6627B00DA11D661FAF
:100D2000829F2227B00DA11D621F739FB00DA11DD0
:100D3000621F839FA00D611D221F749F3327A00D8A
:100D4000611D231F849F600D211D822F762F6A2F26
:100D500011249F5750408AF0E1F088234AF0EE0FAB
:100D6000FF1FBB1F661F771F881F91505040A9F7B8
:100D70009E3F510570F060CFAACF5F3FECF3983EE5
:100D8000DCF3869577956795B795F795E7959F5F1F
:100D9000C1F7FE2B880F911D9695879597F90895B9
:100DA0002FD020F09F3708F492CF01C01BC08823BA
:100DB00071F4772321F09850872B762F07C0662394
:100DC00011F499270DC09051862B70E060E02AF055
:100DD0009A95660F771F881FDAF7880F9695879583
:100DE00097F908959F3F31F0915020F487957795BA
:100DF0006795B795880F911D9695879597F90895F2
:100E00004BDFA0F0BEE7B91788F4BB279F3860F42A
:100E10001616B11D672F782F8827985FF7CF869514
:100E200077956795B11D93959639C8F30895AEE00F
:100E3000B0E0EDE1F7E00C94BF090D891E8986E072
:100E40008C831A8309838FEF9FE79E838D83AE0186
:100E5000475E5F4F6F89788DCE0101960E943907FA
:100E6000EF81F885E00FF11F10822E96E4E00C94DC
:100E7000DB09ACE0B0E0EFE3F7E00C94B1097C01F2
:100E80006B018A01FC0117821682838181FFBDC13B
:100E9000CE0101964C01F7019381F60193FD8591F6
:100EA00093FF81916F01882309F4ABC1853239F436
:100EB00093FD859193FF81916F01853229F4B701EC
:100EC00090E00E942109E7CF512C312C20E0203204
:100ED000A0F48B3269F030F4803259F0833269F437
:100EE00020612CC08D3239F0803339F4216026C066
:100EF0002260246023C0286021C027FD27C030ED78
:100F0000380F3A3078F426FF06C0FAE05F9E300DC5
:100F10001124532E13C08AE0389E300D1124332E35
:100F200020620CC08E3221F426FD6BC1206406C005
:100F30008C3611F4206802C0883641F4F60193FD26
:100F4000859193FF81916F018111C1CF982F9F7D72
:100F50009554933028F40C5F1F4FFFE3F9830DC0C5
:100F6000833631F0833771F0833509F05BC022C0DE
:100F7000F801808189830E5F1F4F44244394512CD4
:100F8000540115C03801F2E06F0E711CF801A08009
:100F9000B18026FF03C0652D70E002C06FEF7FEFC8
:100FA000C5012C870E9416092C0183012C852F77FF
:100FB000222E17C03801F2E06F0E711CF801A080DC
:100FC000B18026FF03C0652D70E002C06FEF7FEF98
:100FD000C5012C870E940B092C012C852068222E2C
:100FE000830123FC1BC0832D90E048165906B0F402
:100FF000B70180E290E00E9421093A94F4CFF50114
:1010000027FC859127FE81915F01B70190E00E9446
:10101000210931103A94F1E04F1A5108411451045A
:1010200071F7E5C0843611F0893639F5F80127FFEC
:1010300007C060817181828193810C5F1F4F08C05E
:1010400060817181882777FD8095982F0E5F1F4FF3
:101050002F76B22E97FF09C0909580957095619577
:101060007F4F8F4F9F4F2068B22E2AE030E0A401BF
:101070000E945309A82EA81844C0853729F42F7E52
:10108000B22E2AE030E025C0F22FF97FBF2E8F3636
:10109000C1F018F4883579F0B4C0803719F088377A
:1010A00021F0AFC02F2F2061B22EB4FE0DC08B2DCA
:1010B0008460B82E09C024FF0AC09F2F9660B92E05
:1010C00006C028E030E005C020E130E002C020E1A9
:1010D00032E0F801B7FE07C060817181828193819F
:1010E0000C5F1F4F06C06081718180E090E00E5F51
:1010F0001F4FA4010E945309A82EA818FB2DFF77AB
:10110000BF2EB6FE0BC02B2D2E7FA51450F4B4FEBF
:101110000AC0B2FC08C02B2D2E7E05C07A2C2B2DC8
:1011200003C07A2C01C0752C24FF0DC0FE01EA0D0E
:10113000F11D8081803311F4297E09C022FF06C091
:101140007394739404C0822F867809F0739423FDFE
:1011500013C020FF06C05A2C731418F4530C5718F0
:10116000732C731468F4B70180E290E02C870E941E
:10117000210973942C85F5CF731410F4371801C02E
:10118000312C24FF12C0B70180E390E02C870E942D
:1011900021092C8522FF17C021FF03C088E590E0BC
:1011A00002C088E790E0B7010CC0822F867859F022
:1011B00021FD02C080E201C08BE227FD8DE2B70174
:1011C00090E00E942109A51438F4B70180E390E073
:1011D0000E9421095A94F7CFAA94F401EA0DF11D57
:1011E0008081B70190E00E942109A110F5CF332042
:1011F00009F451CEB70180E290E00E9421093A94AF
:10120000F6CFF7018681978102C08FEF9FEF2C9672
:10121000E2E10C94CD09FC01059061507040011091
:10122000D8F7809590958E0F9F1F0895FC0161500F
:10123000704001900110D8F7809590958E0F9F1FF8
:1012400008950F931F93CF93DF93182F092FEB016E
:101250008B8181FD03C08FEF9FEF20C082FF10C004
:101260004E815F812C813D81421753077CF4E881D8
:10127000F9819F012F5F3F4F39832883108306C078
:10128000E885F985812F0995892B29F72E813F81E2
:101290002F5F3F4F3F832E83812F902FDF91CF9180
:1012A0001F910F910895FA01AA27283051F120319A
:1012B00081F1E8946F936E7F6E5F7F4F8F4F9F4FEA
:1012C000AF4FB1E03ED0B4E03CD0670F781F891F2C
:1012D0009A1FA11D680F791F8A1F911DA11D6A0FFA
:1012E000711D811D911DA11D20D009F468943F91AD
:1012F0002AE0269F11243019305D3193DEF6CF01AC
:101300000895462F4770405D4193B3E00FD0C9F771
:10131000F6CF462F4F70405D4A3318F0495D31FDDE
:101320004052419302D0A9F7EACFB4E0A695979531
:10133000879577956795BA95C9F700976105710507
:1013400008959B01AC010A2E069457954795379551
:101350002795BA95C9F7620F731F841F951FA01DAB
:1013600008952F923F924F925F926F927F928F9249
:101370009F92AF92BF92CF92DF92EF92FF920F9324
:101380001F93CF93DF93CDB7DEB7CA1BDB0B0FB62E
:10139000F894DEBF0FBECDBF09942A8839884888EB
:1013A0005F846E847D848C849B84AA84B984C88481
:1013B000DF80EE80FD800C811B81AA81B981CE0F78
:1013C000D11D0FB6F894DEBF0FBECDBFED0108955D
:0413D000F894FFCFBF
:1013D400424C41434B005B33306D00524544005B4B
:1013E40033316D00475245454E005B33326D005931
:1013F400454C4C4F57005B33336D00424C55450010
:101404005B33346D004D41474E455441005B3335E9
:101414006D004359414E005B33366D0057484954C3
:1014240045005B33376D005B324A005B48005B2547
:10143400643B256466002D2D3D3D4D6F62696C65EE
:1014440020526F626F74206279204D69436B6C3D4A
:101454003D2D2D0056656C6F636974793A202564BF
:04146400252500003A
:00000001FF
