:100000000C9434000C9446000C9446000C9446006A
:100010000C9446000C9446000C9446000C94460048
:100020000C9446000C9446000C9446000C94460038
:100030000C9446000C9446000C94A9010C944600C4
:100040000C9446000C9446000C9446000C94460018
:100050000C9446000C9446000C9446000C94460008
:100060000C9446000C94460011241FBECFEFD8E03C
:10007000DEBFCDBF21E0A0E0B1E001C01D92A632FD
:10008000B207E1F70E9488010C94EB010C94000088
:100090009EBD0DB407FEFDCF8EBD0DB407FEFDCF96
:1000A000299A2998089529988EBD0DB407FEFDCF91
:1000B000299A08958CB580658CBD8DB581608DBD04
:1000C0000895209A229A579A569A219A259A239A05
:1000D00085B115B885B115B88BB11BB85E9A85B1DD
:1000E00015B82D9A8CB580658CBD8DB581608DBDA0
:1000F00082E084BD85E085BD83E087BDEEE6F0E06B
:1001000080818260808308955F9A5E9AE2E0F1E0E8
:1001100081918EBD0DB407FEFDCF81E0EE30F80772
:10012000B9F7299A85B115B808955E9B04C08BB1C3
:100130001BB831E001C030E085B115B880E090E136
:1001400020E0203C78F4E22FF0E0E25FFE4F4081B7
:10015000442311F02B9A02C045B115B82A9A45B133
:1001600015B82F5F289A45B115B80197009749F740
:100170002D9A299A85B115B8332321F02A9A85B191
:1001800015B8089508959C0194E0369527959A95A1
:10019000E1F7322F982F22952F708295807F282BA0
:1001A000E0E1F1E0DF0112973C9311962C939083EC
:1001B000339681E0E832F807A9F70895282F220F37
:1001C000220F422F440F440F942F990F990F382F6D
:1001D00032953F70322B282F26952695242B982B6D
:1001E00030930201209303019093040130930501A1
:1001F0002093060190930701309308012093090191
:1002000090930A0130930B0120930C0190930D0100
:1002100008952FE0281B33E0239FC00111249695F9
:100220008795FC01E25FFE4F20FD11C09B0144E079
:10023000369527954A95E1F72083FC01E15FFE4F53
:1002400080818F706295607F862B80830895808186
:10025000807F872B8083618308952FE0281B33E004
:10026000239FC001112496958795969587952370B5
:10027000FC01EE5FFE4F2130D9F0A8F0223051F59D
:100280004081407F9B013695279536952795422BD7
:100290004083FC01ED5FFE4F80818F736295660F96
:1002A000660F607C19C080818370660F660F14C072
:1002B00040814C7F9B01A4E036952795AA95E1F7F4
:1002C000422B4083FC01ED5FFE4F80818F70629571
:1002D000607F02C08081807C862B8083089590930C
:1002E000C5008093C40088E18093C1008EE08093B4
:1002F000C20008959091C00095FFFCCF8093C60086
:1003000008958091C00087FFFCCF8091C6000895BA
:100310000E94610080E090E00E94C3007894C1E0F8
:10032000809101018111FCCF80E090E00E94C30028
:100330006FEF7FE080E00E940901C09301012FEF81
:1003400080E792E0215080409040E1F700C000003B
:10035000E7CF1F920F920FB60F9211248F93EF9356
:10036000FF932D9A5E9B0FC08BB11BB8809100014B
:10037000882329F0299A85B115B8109200012A9A8C
:1003800085B115B809C080910001882329F0299A08
:1003900085B115B81092000185B115B880910101A1
:1003A00081110DC081E08093000110920101FF9145
:1003B000EF918F910F900FBE0F901F901895EEE068
:1003C000F1E081918EBD0DB407FEFDCF81E0E632F4
:0A03D000F807B9F7E7CFF894FFCF64
:00000001FF
