:100000000C9434000C9446000C9446000C9446006A
:100010000C9446000C9446000C9446000C94460048
:100020000C9446000C9446000C9446000C94460038
:100030000C9446000C9446000C946F010C944600FE
:100040000C9446000C9446000C9446000C94460018
:100050000C9446000C9446000C9446000C94460008
:100060000C9446000C94460011241FBECFEFD8E03C
:10007000DEBFCDBF21E0A0E0B1E001C01D92A632FD
:10008000B207E1F70E9402020C94AB020C9400004C
:100090009EBD0DB407FEFDCF8EBD0DB407FEFDCF96
:1000A000299A2998089529988EBD0DB407FEFDCF91
:1000B000299A08958CB580658CBD8DB581608DBD04
:1000C0000895209A259A569A579A219A229A239A05
:1000D00085B115B885B115B88BB11BB85F9A85B1DC
:1000E00015B82A9A8CB580658CBD8DB581608DBDA3
:1000F00082E084BD85E085BD83E087BDEEE6F0E06B
:1001000080818260808308955E9A5F9AE2E0F1E0E8
:1001100081918EBD0DB407FEFDCF81E0EE30F80772
:10012000B9F7299A85B115B808955F9B04C08BB1C2
:100130001BB831E001C030E085B115B880E090E136
:1001400020E0203C78F4E22FF0E0E25FFE4F4081B7
:10015000442311F02B9A02C045B115B82D9A45B130
:1001600015B82F5F289A45B115B80197009749F740
:100170002A9A299A85B115B8332321F02D9A85B191
:1001800015B8089508959C0194E0369527959A95A1
:10019000E1F7322F982F22952F708295807F282BA0
:1001A000E0E1F1E0DF0112973C9311962C939083EC
:1001B000339681E0E832F807A9F70895282F220F37
:1001C000220F422F440F440F942F990F990F382F6D
:1001D00032953F70322B282F26952695242B982B6D
:1001E00030930201209303019093040130930501A1
:1001F0002093060190930701309308012093090191
:1002000090930A0130930B0120930C0190930D0100
:1002100008952FE0281B33E0239FC00111249695F9
:100220008795FC01E25FFE4F20FD11C09B0144E079
:10023000369527954A95E1F72083FC01E15FFE4F53
:1002400080818F706295607F862B80830895808186
:10025000807F872B8083618308952FE0281B33E004
:10026000239FC001112496958795969587952370B5
:10027000FC01EE5FFE4F2130D9F0A8F0223051F59D
:100280004081407F9B013695279536952795422BD7
:100290004083FC01ED5FFE4F80818F736295660F96
:1002A000660F607C19C080818370660F660F14C072
:1002B00040814C7F9B01A4E036952795AA95E1F7F4
:1002C000422B4083FC01ED5FFE4F80818F70629571
:1002D000607F02C08081807C862B808308951F927E
:1002E0000F920FB60F9211248F93EF93FF932A9AD8
:1002F0005F9B0FC08BB11BB880910001882329F050
:10030000299A85B115B8109200012D9A85B115B8BA
:1003100009C080910001882329F0299A85B115B878
:100320001092000185B115B880910101882381F0F8
:10033000EEE0F1E081918EBD0DB407FEFDCF81E0CE
:10034000E632F807B9F781E08093000110920101CD
:10035000FF91EF918F910F900FBE0F901F90189506
:100360009093C5008093C40088E18093C1008EE023
:100370008093C20008959091C00095FFFCCF8093B8
:10038000C60008958091C00087FFFCCF8091C60011
:100390000895CF93DF93EB018236B9F0863679F575
:1003A000888199818115904124F08FEF9FE0998396
:1003B0008883809101018111FCCF6881798181E07E
:1003C0000E94090160E070E014C088819981811564
:1003D000904124F08FEF9FE0998388838091010101
:1003E0008111FCCF60E070E081E00E94090168812A
:1003F000798182E00E94090181E080930101DF910F
:10040000CF910895CF93DF9300D0CDB7DEB783E3CC
:1004100090E00E94B0010E94610080E090E00E94A4
:10042000C300789420E639E03A8329830E94C20110
:10043000182F843409F44EC030F4823429F1B8F511
:10044000813479F073C0823609F457C0833609F4D9
:1004500061C0813609F06AC029813A8128533F4F33
:1004600050C0809101018111FCCF69817A8181E0C6
:100470000E94090160E070E082E00E94090181E0D1
:100480008093010106E663C0809101018111FCCFD8
:1004900060E070E081E00E94090169817A8182E078
:1004A0000E94090181E08093010102E650C0809121
:1004B00001018111FCCF69817A8181E00E940901EB
:1004C00060E070E082E00E94090181E08093010118
:1004D00002E73DC0809101018111FCCF69817A81E1
:1004E00081E00E94090160E070E082E00E94090161
:1004F00081E0809301010CE62AC029813A81285CC1
:1005000031093A832983BE016F5F7F4F802F0E949C
:10051000C9011DC0809101018111FCCF6FEF7FE007
:1005200081E00E9409016FEF7FE00BC08091010123
:100530008111FCCF60E070E081E00E94090160E081
:1005400070E082E00E94090181E080930101812F27
:0A0550000E94BB016BCFF894FFCFAF
:00000001FF
