:100000000C9434000C9451000C9451000C94510049
:100010000C9451000C9451000C9451000C9451001C
:100020000C9451000C9451000C9451000C9451000C
:100030000C9451000C9451000C94EF000C9451005E
:100040000C9451000C9451000C9451000C945100EC
:100050000C9451000C9451000C9451000C945100DC
:100060000C9451000C94510011241FBECFEFD8E026
:10007000DEBFCDBF12E0A0E0B1E0ECE5F2E002C0EF
:1000800005900D92A032B107D9F722E0A0E2B2E0CC
:1000900001C01D92A132B207E1F70E94E9000C9461
:1000A0002C010C9400009EBD0DB407FEFDCF8EBD4B
:1000B0000DB407FEFDCF299A2998089529988EBD81
:1000C0000DB407FEFDCF299A089584B18E6084B9DE
:1000D0008CB580658CBD8DB581608DBD0895209AED
:1000E000229A579A569A219A259A239A85B115B839
:1000F00085B115B88BB11BB85E9A85B115B82D9A2C
:1001000082E084BD85E085BD83E087BDEEE6F0E05A
:1001100080818260808308955F9A5E9AE0ECF1E0CE
:100120008191882311F02B9A02C085B115B82A9AC3
:1001300085B115B882E0E032F80791F7299A85B1C8
:1001400015B808955E9B04C08BB11BB831E001C0A7
:1001500030E085B115B880E090E120E0203C78F4F3
:10016000E22FF0E0E050FF4F4081442311F02B9A42
:1001700002C045B115B82A9A45B115B82F5F289A23
:1001800045B115B80197009749F72D9A299A85B17D
:1001900015B8332321F02A9A85B115B8089508952A
:1001A0009093C5008093C40088E18093C1008EE0E5
:1001B0008093C20008959091C00095FFFCCF80937A
:1001C000C60008958091C00087FFFCCF8091C600D3
:1001D00008950E946F000E948C007894FFCF1F92B8
:1001E0000F920FB60F9211248F939F93EF93FF936B
:1001F0002D9A5E9B04C08BB11BB881E001C080E0EA
:1002000090912002992329F0299A95B115B810925E
:100210002002882319F02A9A85B115B885B115B83E
:10022000E0E0F1E08191882311F02B9A02C085B1C2
:1002300015B82A9A85B115B881E0E03CF80791F726
:1002400081E080932002FF91EF919F918F910F9019
:0C0250000FBE0F901F901895F894FFCF80
:10025C000000000000000000000000000000000092
:10026C000000000000000000000000000000000082
:10027C000000000000000000000000000000000171
:10028C000000000000000000000001000000000061
:10029C000000000000010000000000000000000051
:1002AC000100000000000000000000010000000040
:1002BC000000000000000100000000000000000031
:1002CC000001000000000000000000000100000020
:1002DC000000000000000001000000000000000011
:1002EC000000010000000000000000000001000000
:1002FC0000000000000000000100000000000000F1
:10030C0000000000010101010101010101010101D5
:10031C0001010101010101010101010101010101C1
:10032C0001010101010101010101010101010101B1
:10033C0001010101010101010101010101010101A1
:10034C000101010101010101010101010101010191
:10035C000101010101010101010101010101010181
:10036C000101010101010101010101010101010171
:00000001FF
